{
  "contractName": "RepoIAA",
  "abi": [
    {
      "constant": false,
      "inputs": [
        {
          "name": "_desc",
          "type": "bytes32"
        },
        {
          "name": "_saAddress",
          "type": "address"
        },
        {
          "name": "_saDesc",
          "type": "bytes32"
        },
        {
          "name": "_raDesc",
          "type": "bytes32"
        }
      ],
      "name": "addIAA",
      "outputs": [],
      "payable": false,
      "stateMutability": "nonpayable",
      "type": "function"
    },
    {
      "constant": false,
      "inputs": [
        {
          "name": "i",
          "type": "uint256"
        }
      ],
      "name": "approveIAA",
      "outputs": [],
      "payable": false,
      "stateMutability": "nonpayable",
      "type": "function"
    },
    {
      "constant": false,
      "inputs": [
        {
          "name": "i",
          "type": "uint256"
        },
        {
          "name": "_desc",
          "type": "bytes32"
        },
        {
          "name": "_compensation",
          "type": "uint256"
        },
        {
          "name": "_duration",
          "type": "uint256"
        }
      ],
      "name": "addDeliverable",
      "outputs": [],
      "payable": false,
      "stateMutability": "nonpayable",
      "type": "function"
    },
    {
      "constant": false,
      "inputs": [
        {
          "name": "i",
          "type": "uint256"
        },
        {
          "name": "j",
          "type": "uint256"
        }
      ],
      "name": "removeDeliverable",
      "outputs": [],
      "payable": false,
      "stateMutability": "nonpayable",
      "type": "function"
    },
    {
      "constant": false,
      "inputs": [
        {
          "name": "i",
          "type": "uint256"
        },
        {
          "name": "j",
          "type": "uint256"
        },
        {
          "name": "_desc",
          "type": "bytes32"
        },
        {
          "name": "_compensation",
          "type": "uint256"
        },
        {
          "name": "_duration",
          "type": "uint256"
        }
      ],
      "name": "modifyDeliverable",
      "outputs": [],
      "payable": false,
      "stateMutability": "nonpayable",
      "type": "function"
    },
    {
      "constant": false,
      "inputs": [
        {
          "name": "i",
          "type": "uint256"
        },
        {
          "name": "j",
          "type": "uint256"
        }
      ],
      "name": "confirmDelivery",
      "outputs": [],
      "payable": false,
      "stateMutability": "nonpayable",
      "type": "function"
    },
    {
      "constant": true,
      "inputs": [
        {
          "name": "i",
          "type": "uint256"
        }
      ],
      "name": "getIAAmetadata",
      "outputs": [
        {
          "name": "",
          "type": "bytes32"
        },
        {
          "name": "",
          "type": "bytes32"
        },
        {
          "name": "",
          "type": "bytes32"
        }
      ],
      "payable": false,
      "stateMutability": "view",
      "type": "function"
    },
    {
      "constant": true,
      "inputs": [
        {
          "name": "i",
          "type": "uint256"
        }
      ],
      "name": "getIAAdeliverables",
      "outputs": [
        {
          "name": "",
          "type": "bytes32[]"
        },
        {
          "name": "",
          "type": "uint256[]"
        },
        {
          "name": "",
          "type": "uint256[]"
        },
        {
          "name": "",
          "type": "bool[]"
        }
      ],
      "payable": false,
      "stateMutability": "view",
      "type": "function"
    }
  ],
  "bytecode": "0x6060604052341561000f57600080fd5b611c8e8061001e6000396000f30060606040526004361061008e576000357c0100000000000000000000000000000000000000000000000000000000900463ffffffff16806305a6b3b9146100935780633bdbe4a6146101e35780634121a40d1461020f578063679060ee1461026f5780637767a524146102ba578063d52f82b214610317578063f796a3431461033a578063fa9d7f2c14610366575b600080fd5b341561009e57600080fd5b6100b460048080359060200190919050506103a8565b6040518080602001806020018060200180602001858103855289818151815260200191508051906020019060200280838360005b838110156101035780820151818401526020810190506100e8565b50505050905001858103845288818151815260200191508051906020019060200280838360005b8381101561014557808201518184015260208101905061012a565b50505050905001858103835287818151815260200191508051906020019060200280838360005b8381101561018757808201518184015260208101905061016c565b50505050905001858103825286818151815260200191508051906020019060200280838360005b838110156101c95780820151818401526020810190506101ae565b505050509050019850505050505050505060405180910390f35b34156101ee57600080fd5b61020d6004808035906020019091908035906020019091905050610664565b005b341561021a57600080fd5b61026d60048080356000191690602001909190803573ffffffffffffffffffffffffffffffffffffffff169060200190919080356000191690602001909190803560001916906020019091905050610a94565b005b341561027a57600080fd5b6102b8600480803590602001909190803590602001909190803560001916906020019091908035906020019091908035906020019091905050610e4a565b005b34156102c557600080fd5b6102db60048080359060200190919050506111af565b60405180846000191660001916815260200183600019166000191681526020018260001916600019168152602001935050505060405180910390f35b341561032257600080fd5b610338600480803590602001909190505061123c565b005b341561034557600080fd5b61036460048080359060200190919080359060200190919050506113e8565b005b341561037157600080fd5b6103a6600480803590602001909190803560001916906020019091908035906020019091908035906020019091905050611583565b005b6103b0611944565b6103b8611958565b6103c0611958565b6103c861196c565b60006103d2611944565b6103da611958565b6103e2611958565b6103ea61196c565b600080805490508b1015156103fe57600080fd5b60008b81548110151561040d57fe5b9060005260206000209060080201600601805490509550856040518059106104325750595b90808252806020026020018201604052509450856040518059106104535750595b90808252806020026020018201604052509350856040518059106104745750595b90808252806020026020018201604052509250856040518059106104955750595b90808252806020026020018201604052509150600090505b8581101561064b5760008b8154811015156104c457fe5b9060005260206000209060080201600601818154811015156104e257fe5b906000526020600020906004020160000154858281518110151561050257fe5b90602001906020020190600019169081600019168152505060008b81548110151561052957fe5b90600052602060002090600802016006018181548110151561054757fe5b906000526020600020906004020160010154838281518110151561056757fe5b906020019060200201818152505060008b81548110151561058457fe5b9060005260206000209060080201600601818154811015156105a257fe5b90600052602060002090600402016002015484828151811015156105c257fe5b906020019060200201818152505060008b8154811015156105df57fe5b9060005260206000209060080201600601818154811015156105fd57fe5b906000526020600020906004020160030160009054906101000a900460ff16828281518110151561062a57fe5b906020019060200201901515908115158152505080806001019150506104ad565b8483858499509950995099505050505050509193509193565b600080805490508310801561069b575060008381548110151561068357fe5b90600052602060002090600802016006018054905082105b15156106a657600080fd5b6000838154811015156106b557fe5b906000526020600020906008020160020160010160009054906101000a900473ffffffffffffffffffffffffffffffffffffffff1673ffffffffffffffffffffffffffffffffffffffff163373ffffffffffffffffffffffffffffffffffffffff161480610791575060008381548110151561072d57fe5b906000526020600020906008020160040160010160009054906101000a900473ffffffffffffffffffffffffffffffffffffffff1673ffffffffffffffffffffffffffffffffffffffff163373ffffffffffffffffffffffffffffffffffffffff16145b151561079c57600080fd5b60016000848154811015156107ad57fe5b9060005260206000209060080201600601805490500390506000838154811015156107d457fe5b9060005260206000209060080201600601818154811015156107f257fe5b906000526020600020906004020160008481548110151561080f57fe5b90600052602060002090600802016006018381548110151561082d57fe5b90600052602060002090600402016000820154816000019060001916905560018201548160010155600282015481600201556003820160009054906101000a900460ff168160030160006101000a81548160ff02191690831515021790555090505060008381548110151561089e57fe5b9060005260206000209060080201600601818154811015156108bc57fe5b9060005260206000209060040201600080820160009055600182016000905560028201600090556003820160006101000a81549060ff0219169055505060008381548110151561090857fe5b906000526020600020906008020160060180548091906001900361092c9190611980565b5060008381548110151561093c57fe5b906000526020600020906008020160020160010160009054906101000a900473ffffffffffffffffffffffffffffffffffffffff1673ffffffffffffffffffffffffffffffffffffffff163373ffffffffffffffffffffffffffffffffffffffff161415156109de57600080848154811015156109b557fe5b906000526020600020906008020160070160006101000a81548160ff0219169083151502179055505b6000838154811015156109ed57fe5b906000526020600020906008020160040160010160009054906101000a900473ffffffffffffffffffffffffffffffffffffffff1673ffffffffffffffffffffffffffffffffffffffff163373ffffffffffffffffffffffffffffffffffffffff16141515610a8f5760008084815481101515610a6657fe5b906000526020600020906008020160070160016101000a81548160ff0219169083151502179055505b505050565b610a9c6119b2565b610aa46119b2565b60008573ffffffffffffffffffffffffffffffffffffffff163373ffffffffffffffffffffffffffffffffffffffff1614151515610ae157600080fd5b8383600001906000191690816000191681525050848260000190600019169081600019168152505033836020019073ffffffffffffffffffffffffffffffffffffffff16908173ffffffffffffffffffffffffffffffffffffffff168152505085826020019073ffffffffffffffffffffffffffffffffffffffff16908173ffffffffffffffffffffffffffffffffffffffff16815250508681600001816000191690555081816002016000820151816000019060001916905560208201518160010160006101000a81548173ffffffffffffffffffffffffffffffffffffffff021916908373ffffffffffffffffffffffffffffffffffffffff16021790555090505082816004016000820151816000019060001916905560208201518160010160006101000a81548173ffffffffffffffffffffffffffffffffffffffff021916908373ffffffffffffffffffffffffffffffffffffffff16021790555090505042816001018190555060018160070160016101000a81548160ff02191690831515021790555060008160070160006101000a81548160ff02191690831515021790555060008054806001018281610c9b91906119e5565b9160005260206000209060080201600083909190915060008201548160000190600019169055600182015481600101556002820181600201600082015481600001906000191690556001820160009054906101000a900473ffffffffffffffffffffffffffffffffffffffff168160010160006101000a81548173ffffffffffffffffffffffffffffffffffffffff021916908373ffffffffffffffffffffffffffffffffffffffff16021790555050506004820181600401600082015481600001906000191690556001820160009054906101000a900473ffffffffffffffffffffffffffffffffffffffff168160010160006101000a81548173ffffffffffffffffffffffffffffffffffffffff021916908373ffffffffffffffffffffffffffffffffffffffff16021790555050506006820181600601908054610de3929190611a17565b506007820160009054906101000a900460ff168160070160006101000a81548160ff0219169083151502179055506007820160019054906101000a900460ff168160070160016101000a81548160ff02191690831515021790555050505050505050505050565b610e52611ac0565b60008054905086108015610e885750600086815481101515610e7057fe5b90600052602060002090600802016006018054905085105b1515610e9357600080fd5b600086815481101515610ea257fe5b906000526020600020906008020160020160010160009054906101000a900473ffffffffffffffffffffffffffffffffffffffff1673ffffffffffffffffffffffffffffffffffffffff163373ffffffffffffffffffffffffffffffffffffffff161480610f7e5750600086815481101515610f1a57fe5b906000526020600020906008020160040160010160009054906101000a900473ffffffffffffffffffffffffffffffffffffffff1673ffffffffffffffffffffffffffffffffffffffff163373ffffffffffffffffffffffffffffffffffffffff16145b1515610f8957600080fd5b83816000019060001916908160001916815250508281602001818152505081816040018181525050600081606001901515908115158152505080600087815481101515610fd257fe5b906000526020600020906008020160060186815481101515610ff057fe5b906000526020600020906004020160008201518160000190600019169055602082015181600101556040820151816002015560608201518160030160006101000a81548160ff02191690831515021790555090505060008681548110151561105457fe5b906000526020600020906008020160020160010160009054906101000a900473ffffffffffffffffffffffffffffffffffffffff1673ffffffffffffffffffffffffffffffffffffffff163373ffffffffffffffffffffffffffffffffffffffff161415156110f657600080878154811015156110cd57fe5b906000526020600020906008020160070160006101000a81548160ff0219169083151502179055505b60008681548110151561110557fe5b906000526020600020906008020160040160010160009054906101000a900473ffffffffffffffffffffffffffffffffffffffff1673ffffffffffffffffffffffffffffffffffffffff163373ffffffffffffffffffffffffffffffffffffffff161415156111a7576000808781548110151561117e57fe5b906000526020600020906008020160070160016101000a81548160ff0219169083151502179055505b505050505050565b60008060008080549050841015156111c657600080fd5b6000848154811015156111d557fe5b9060005260206000209060080201600001546000858154811015156111f657fe5b90600052602060002090600802016004016000015460008681548110151561121a57fe5b9060005260206000209060080201600201600001549250925092509193909250565b6000805490508110151561124f57600080fd5b60008181548110151561125e57fe5b906000526020600020906008020160020160010160009054906101000a900473ffffffffffffffffffffffffffffffffffffffff1673ffffffffffffffffffffffffffffffffffffffff163373ffffffffffffffffffffffffffffffffffffffff1614156113005760016000828154811015156112d757fe5b906000526020600020906008020160070160006101000a81548160ff0219169083151502179055505b60008181548110151561130f57fe5b906000526020600020906008020160040160010160009054906101000a900473ffffffffffffffffffffffffffffffffffffffff1673ffffffffffffffffffffffffffffffffffffffff163373ffffffffffffffffffffffffffffffffffffffff1614156113b157600160008281548110151561138857fe5b906000526020600020906008020160070160016101000a81548160ff0219169083151502179055505b6113ba816118c5565b156113e557426000828154811015156113cf57fe5b9060005260206000209060080201600101819055505b50565b6000805490508210801561141e575060008281548110151561140657fe5b90600052602060002090600802016006018054905081105b151561142957600080fd5b60008281548110151561143857fe5b906000526020600020906008020160040160010160009054906101000a900473ffffffffffffffffffffffffffffffffffffffff1673ffffffffffffffffffffffffffffffffffffffff163373ffffffffffffffffffffffffffffffffffffffff161415156114a657600080fd5b6114af826118c5565b15156114ba57600080fd5b6000828154811015156114c957fe5b9060005260206000209060080201600601818154811015156114e757fe5b90600052602060002090600402016002015460008381548110151561150857fe5b906000526020600020906008020160010154420310151561152857600080fd5b600160008381548110151561153957fe5b90600052602060002090600802016006018281548110151561155757fe5b906000526020600020906004020160030160006101000a81548160ff0219169083151502179055505050565b61158b611ac0565b6000805490508510151561159e57600080fd5b6000858154811015156115ad57fe5b906000526020600020906008020160020160010160009054906101000a900473ffffffffffffffffffffffffffffffffffffffff1673ffffffffffffffffffffffffffffffffffffffff163373ffffffffffffffffffffffffffffffffffffffff161480611689575060008581548110151561162557fe5b906000526020600020906008020160040160010160009054906101000a900473ffffffffffffffffffffffffffffffffffffffff1673ffffffffffffffffffffffffffffffffffffffff163373ffffffffffffffffffffffffffffffffffffffff16145b151561169457600080fd5b8381600001906000191690816000191681525050828160200181815250508181604001818152505060008160600190151590811515815250506000858154811015156116dc57fe5b906000526020600020906008020160060180548060010182816116ff9190611aee565b9160005260206000209060040201600083909190915060008201518160000190600019169055602082015181600101556040820151816002015560608201518160030160006101000a81548160ff02191690831515021790555050505060008581548110151561176b57fe5b906000526020600020906008020160020160010160009054906101000a900473ffffffffffffffffffffffffffffffffffffffff1673ffffffffffffffffffffffffffffffffffffffff163373ffffffffffffffffffffffffffffffffffffffff1614151561180d57600080868154811015156117e457fe5b906000526020600020906008020160070160006101000a81548160ff0219169083151502179055505b60008581548110151561181c57fe5b906000526020600020906008020160040160010160009054906101000a900473ffffffffffffffffffffffffffffffffffffffff1673ffffffffffffffffffffffffffffffffffffffff163373ffffffffffffffffffffffffffffffffffffffff161415156118be576000808681548110151561189557fe5b906000526020600020906008020160070160016101000a81548160ff0219169083151502179055505b5050505050565b60008080549050821015156118d957600080fd5b6000828154811015156118e857fe5b906000526020600020906008020160070160019054906101000a900460ff16801561193d575060008281548110151561191d57fe5b906000526020600020906008020160070160009054906101000a900460ff165b9050919050565b602060405190810160405280600081525090565b602060405190810160405280600081525090565b602060405190810160405280600081525090565b8154818355818115116119ad576004028160040283600052602060002091820191016119ac9190611b20565b5b505050565b604080519081016040528060008019168152602001600073ffffffffffffffffffffffffffffffffffffffff1681525090565b815481835581811511611a1257600802816008028360005260206000209182019101611a119190611b6b565b5b505050565b828054828255906000526020600020906004028101928215611aaf5760005260206000209160040282015b82811115611aae5782826000820154816000019060001916905560018201548160010155600282015481600201556003820160009054906101000a900460ff168160030160006101000a81548160ff021916908315150217905550505091600401919060040190611a42565b5b509050611abc9190611b20565b5090565b6080604051908101604052806000801916815260200160008152602001600081526020016000151581525090565b815481835581811511611b1b57600402816004028360005260206000209182019101611b1a9190611b20565b5b505050565b611b6891905b80821115611b6457600080820160009055600182016000905560028201600090556003820160006101000a81549060ff021916905550600401611b26565b5090565b90565b611c3b91905b80821115611c37576000808201600090556001820160009055600282016000808201600090556001820160006101000a81549073ffffffffffffffffffffffffffffffffffffffff02191690555050600482016000808201600090556001820160006101000a81549073ffffffffffffffffffffffffffffffffffffffff02191690555050600682016000611c069190611c3e565b6007820160006101000a81549060ff02191690556007820160016101000a81549060ff021916905550600801611b71565b5090565b90565b5080546000825560040290600052602060002090810190611c5f9190611b20565b505600a165627a7a723058205db7f3a8f3ab1ca63c9fd198020f162de22a94af9d4cc99df5883791ff0a91310029",
  "source": "pragma solidity ^0.4.19;\n\n\ncontract RepoIAA {\n\n  struct Agency {\n    bytes32 desc; // agency description\n    address ethAddress; \n  }\n\n  struct Deliverable {\n    bytes32 desc; // 32 charater deliverble description\n    uint compensation; // fee for service/product\n    uint duration; // how long this deliverable should take\n    // could add more complex logic like a list of pre-requisite\n    // deliverables\n    bool done; // this will be set in the confirmDeliverable function\n  }\n\n  struct IAA {\n    bytes32 desc; // 32 characters describing contract\n    uint startdate; // Unix timestamp of the IAA creation \n    Agency sa; // servicing agency\n    Agency ra; // requesting agency\n    Deliverable[] deliverables; // list of deliverables\n    bool saApproved;\n    bool raApproved;\n  }\n\n  IAA[] iaaList;\n  // TODO: add events for IAA addition, modification, delivery\n\n  function addIAA(bytes32 _desc, address _saAddress, \n  \t\t  bytes32 _saDesc, bytes32 _raDesc) public { \n    // the requesting agency is the caller of the function; make sure \n    // the servicing agency is different \n    require(msg.sender != _saAddress); \n\n    // this function returns the true of the newly created IAA or \n    // false if creation failed (see above require statement) \n    Agency memory _ra;\n    Agency memory _sa; \n    _ra.desc = _raDesc; \n    _sa.desc = _saDesc; \n    _ra.ethAddress = msg.sender; // the requesting agency makes the \n  \t\t\t\t // addIAA call \n    _sa.ethAddress = _saAddress; \n    IAA storage newIAA; \n    newIAA.desc = _desc; \n    newIAA.sa = _sa; \n    newIAA.ra = _ra; \n    newIAA.startdate = now; \n    newIAA.raApproved = true; \n    newIAA.saApproved = false; \n    iaaList.push(newIAA); \n    // TODO: send create event \n  } \n\n  // approval function \n  function approveIAA(uint i) public { \n    require(i < iaaList.length); \n    if (msg.sender == iaaList[i].sa.ethAddress) { \n      iaaList[i].saApproved = true; \n    } \n    if (msg.sender == iaaList[i].ra.ethAddress) { \n      iaaList[i].raApproved = true; \n    } \n    // set the start date if deployed \n    if (isDeployed(i)) { \n      iaaList[i].startdate = now; \n    } \n  } \n\n  // IAA modification: addition and deletion of deliverables \n  // add a deliverable to an existing IAA, change approval status \n  function addDeliverable(uint i, bytes32 _desc, uint _compensation, \n  \t\t\t  uint _duration) public { \n    require(i < iaaList.length); \n    // only the sa and ra are allowed to add deliverables \n    require(msg.sender == iaaList[i].sa.ethAddress || \n  \t    msg.sender == iaaList[i].ra.ethAddress); \n    Deliverable memory d; \n    d.desc = _desc; \n    d.compensation = _compensation; \n    d.duration = _duration; // in seconds \n    d.done = false; \n    iaaList[i].deliverables.push(d); \n    // require approval by the agency that is not making the change \n    if (msg.sender != iaaList[i].sa.ethAddress) { \n      iaaList[i].saApproved = false; \n    } \n    if (msg.sender != iaaList[i].ra.ethAddress) { \n      iaaList[i].raApproved = false; \n    } \n  } \n\n  // remove deliverable j from IAA i, change approval status \n  function removeDeliverable(uint i, uint j) public { \n    // i is IAA index and j is the deliverable index \n    require(i < iaaList.length && \n  \t    j < iaaList[i].deliverables.length); \n    // only the sa and ra are allowed to remove deliverables \n    require(msg.sender == iaaList[i].sa.ethAddress || \n  \t    msg.sender == iaaList[i].ra.ethAddress); \n\n    // remove the deliverable \n    uint n = iaaList[i].deliverables.length - 1; // last index \n    iaaList[i].deliverables[j] = iaaList[i].deliverables[n]; \n    // remove the last element in the deliverables array \n    delete iaaList[i].deliverables[n]; \n    iaaList[i].deliverables.length--; \n    \n    // change approval status \n    // require approval by the agency that is not making the change \n    if (msg.sender != iaaList[i].sa.ethAddress) { \n      iaaList[i].saApproved = false; \n    } \n    if (msg.sender != iaaList[i].ra.ethAddress) { \n      iaaList[i].raApproved = false; \n    } \n  } \n    \n  // modify deliverable, change approval status \n  function modifyDeliverable(uint i, uint j, \n  \t\t\t     bytes32 _desc, uint _compensation, \n  \t\t\t     uint _duration) public { \n    // i is IAA index and j is the deliverable index \n    require(i < iaaList.length && \n  \t    j < iaaList[i].deliverables.length); \n    // only the sa and ra are allowed to modify deliverables \n    require(msg.sender == iaaList[i].sa.ethAddress || \n  \t    msg.sender == iaaList[i].ra.ethAddress); \n\n    Deliverable memory d; \n    d.desc = _desc; \n    d.compensation = _compensation; \n    d.duration = _duration; \n    d.done = false; \n\n    // modify the deliverable \n    iaaList[i].deliverables[j] = d; \n    \n    // change approval status \n    // require approval by the agency that is not making the change \n    if (msg.sender != iaaList[i].sa.ethAddress) { \n      iaaList[i].saApproved = false; \n    } \n    if (msg.sender != iaaList[i].ra.ethAddress) { \n      iaaList[i].raApproved = false; \n    } \n  } \n    \n  function confirmDelivery(uint i, uint j) public { \n    // i is IAA index and j is the deliverable index \n    require(i < iaaList.length && \n  \t    j < iaaList[i].deliverables.length); \n    // require that RA is the caller \n    require(msg.sender == iaaList[i].ra.ethAddress); \n    // require that the IAA is deployed \n    require(isDeployed(i)); \n    // require that it has not been too long \n    require(now - iaaList[i].startdate < \n  \t    iaaList[i].deliverables[j].duration); \n    \n    // mark deliverable as done \n    iaaList[i].deliverables[j].done = true; \n  } \n\n  // return agency descriptions and the IAA description \n  function getIAAmetadata(uint i) public constant \n    returns (bytes32, bytes32, bytes32) { \n    require(i < iaaList.length); \n    return(iaaList[i].desc, iaaList[i].ra.desc, iaaList[i].sa.desc); \n  } \n  \n  // IAA deliverables getter function \n  function getIAAdeliverables(uint i) public constant \n    returns (bytes32[], uint[], uint[], bool[]) { \n    require(i < iaaList.length); \n    // number of deliverables \n    uint num = iaaList[i].deliverables.length; \n    bytes32[] memory descriptions = new bytes32[](num);\n    uint[] memory durations = new uint[](num);\n    uint[] memory compensations = new uint[](num);\n    bool[] memory completions = new bool[](num);\n    for (uint j = 0; j < num; j++) {\n      descriptions[j] = iaaList[i].deliverables[j].desc;\n      compensations[j] = iaaList[i].deliverables[j].compensation;\n      durations[j] = iaaList[i].deliverables[j].duration;\n      completions[j] = iaaList[i].deliverables[j].done;\n    }\n    return (descriptions, compensations, durations, completions); \n  } \n\n  // test whether the contract is deployed \n  function isDeployed(uint i) internal constant returns (bool) { \n    require(i < iaaList.length); \n    return iaaList[i].raApproved && iaaList[i].saApproved; \n  } \n\n  function listMatching(address a) internal constant returns (uint[]) { \n    // this function returns a list of length iaaList.length of 0 and\n    // 1 where 0 indicates whether the address of ra or sa of the\n    // particular IAA matches the input address\n    uint num = iaaList.length;\n    uint[] memory matchingIAAs = new uint[](num);\n    for (uint i = 0; i < num; i++) { \n      if (iaaList[i].ra.ethAddress == a || iaaList[i].sa.ethAddress == a) { \n  \tmatchingIAAs[i] = 1;\n      } else {\n  \tmatchingIAAs[i] = 0;\n      }\n    } \n    return matchingIAAs; \n  } \n}\n",
  "sourcePath": "/home/leapfrog/Projects/Ethereum/contracts/RepoIAA.sol",
  "compiler": {
    "name": "solc",
    "version": "0.4.19+commit.c4cbbb05.Emscripten.clang"
  },
  "schemaVersion": "1.0.1",
  "updatedAt": "2018-02-21T17:27:11.698Z"
}